{
  "contractName": "ItemManager",
  "abi": [
    {
      "anonymous": false,
      "inputs": [
        {
          "indexed": true,
          "internalType": "address",
          "name": "previousOwner",
          "type": "address"
        },
        {
          "indexed": true,
          "internalType": "address",
          "name": "newOwner",
          "type": "address"
        }
      ],
      "name": "OwnershipTransferred",
      "type": "event"
    },
    {
      "anonymous": false,
      "inputs": [
        {
          "indexed": false,
          "internalType": "uint256",
          "name": "_itemIndex",
          "type": "uint256"
        },
        {
          "indexed": false,
          "internalType": "uint256",
          "name": "_step",
          "type": "uint256"
        },
        {
          "indexed": false,
          "internalType": "address",
          "name": "_address",
          "type": "address"
        }
      ],
      "name": "SupplyChainStep",
      "type": "event"
    },
    {
      "inputs": [
        {
          "internalType": "uint256",
          "name": "",
          "type": "uint256"
        }
      ],
      "name": "items",
      "outputs": [
        {
          "internalType": "contract Item",
          "name": "_item",
          "type": "address"
        },
        {
          "internalType": "enum ItemManager.SupplyChainSteps",
          "name": "_step",
          "type": "uint8"
        },
        {
          "internalType": "string",
          "name": "_identifier",
          "type": "string"
        }
      ],
      "stateMutability": "view",
      "type": "function",
      "constant": true
    },
    {
      "inputs": [],
      "name": "owner",
      "outputs": [
        {
          "internalType": "address",
          "name": "",
          "type": "address"
        }
      ],
      "stateMutability": "view",
      "type": "function",
      "constant": true
    },
    {
      "inputs": [],
      "name": "renounceOwnership",
      "outputs": [],
      "stateMutability": "nonpayable",
      "type": "function"
    },
    {
      "inputs": [
        {
          "internalType": "address",
          "name": "newOwner",
          "type": "address"
        }
      ],
      "name": "transferOwnership",
      "outputs": [],
      "stateMutability": "nonpayable",
      "type": "function"
    },
    {
      "inputs": [
        {
          "internalType": "string",
          "name": "_identifier",
          "type": "string"
        },
        {
          "internalType": "uint256",
          "name": "_priceInWei",
          "type": "uint256"
        }
      ],
      "name": "createItem",
      "outputs": [],
      "stateMutability": "nonpayable",
      "type": "function"
    },
    {
      "inputs": [
        {
          "internalType": "uint256",
          "name": "_index",
          "type": "uint256"
        }
      ],
      "name": "triggerPayment",
      "outputs": [],
      "stateMutability": "payable",
      "type": "function",
      "payable": true
    },
    {
      "inputs": [
        {
          "internalType": "uint256",
          "name": "_index",
          "type": "uint256"
        }
      ],
      "name": "triggerDelivery",
      "outputs": [],
      "stateMutability": "nonpayable",
      "type": "function"
    }
  ],
  "bytecode": "0x608060405234801561001057600080fd5b5061002d61002261003260201b60201c565b61003a60201b60201c565b6100fe565b600033905090565b60008060009054906101000a900473ffffffffffffffffffffffffffffffffffffffff169050816000806101000a81548173ffffffffffffffffffffffffffffffffffffffff021916908373ffffffffffffffffffffffffffffffffffffffff1602179055508173ffffffffffffffffffffffffffffffffffffffff168173ffffffffffffffffffffffffffffffffffffffff167f8be0079c531659141344cd1fd0a4f28419497f9722a3daafe3b4186f6b6457e060405160405180910390a35050565b611e4e8061010d6000396000f3fe6080604052600436106200007a5760003560e01c80638da5cb5b11620000555780638da5cb5b14620000e7578063bfb231d21462000117578063cd31831e146200015d578063f2fde38b146200018b576200007a565b8063715018a6146200007f578063800fb83f14620000995780638c55174214620000b9575b600080fd5b3480156200008c57600080fd5b5062000097620001b9565b005b620000b76004803603810190620000b1919062000d16565b6200024a565b005b348015620000c657600080fd5b50620000e56004803603810190620000df919062000eaa565b620004fb565b005b348015620000f457600080fd5b50620000ff62000723565b6040516200010e919062000f55565b60405180910390f35b3480156200012457600080fd5b506200014360048036038101906200013d919062000d16565b6200074c565b6040516200015493929190620010f0565b60405180910390f35b3480156200016a57600080fd5b5062000189600480360381019062000183919062000d16565b62000833565b005b3480156200019857600080fd5b50620001b76004803603810190620001b1919062001165565b62000a39565b005b620001c362000b3d565b73ffffffffffffffffffffffffffffffffffffffff16620001e362000723565b73ffffffffffffffffffffffffffffffffffffffff16146200023c576040517f08c379a00000000000000000000000000000000000000000000000000000000081526004016200023390620011e7565b60405180910390fd5b62000248600062000b45565b565b60006001600083815260200190815260200160002060000160009054906101000a900473ffffffffffffffffffffffffffffffffffffffff1690503373ffffffffffffffffffffffffffffffffffffffff168173ffffffffffffffffffffffffffffffffffffffff1614620002f6576040517f08c379a0000000000000000000000000000000000000000000000000000000008152600401620002ed9062001259565b60405180910390fd5b348173ffffffffffffffffffffffffffffffffffffffff16633c8da5886040518163ffffffff1660e01b8152600401602060405180830381865afa15801562000343573d6000803e3d6000fd5b505050506040513d601f19601f8201168201806040525081019062000369919062001292565b14620003ac576040517f08c379a0000000000000000000000000000000000000000000000000000000008152600401620003a39062001314565b60405180910390fd5b60006002811115620003c357620003c262000fdd565b5b6001600084815260200190815260200160002060000160149054906101000a900460ff166002811115620003fc57620003fb62000fdd565b5b146200043f576040517f08c379a00000000000000000000000000000000000000000000000000000000081526004016200043690620013ac565b60405180910390fd5b600180600084815260200190815260200160002060000160146101000a81548160ff021916908360028111156200047b576200047a62000fdd565b5b02179055507fa4035636e99f06b7651a604c1019fa4e8779fe68ef27eeb74dff2de348f6199b8260016000600254815260200190815260200160002060000160149054906101000a900460ff166002811115620004dd57620004dc62000fdd565b5b83604051620004ef93929190620013df565b60405180910390a15050565b6200050562000b3d565b73ffffffffffffffffffffffffffffffffffffffff166200052562000723565b73ffffffffffffffffffffffffffffffffffffffff16146200057e576040517f08c379a00000000000000000000000000000000000000000000000000000000081526004016200057590620011e7565b60405180910390fd5b60003082600254604051620005939062000c09565b620005a19392919062001455565b604051809103906000f080158015620005be573d6000803e3d6000fd5b5090508060016000600254815260200190815260200160002060000160006101000a81548173ffffffffffffffffffffffffffffffffffffffff021916908373ffffffffffffffffffffffffffffffffffffffff160217905550600060016000600254815260200190815260200160002060000160146101000a81548160ff0219169083600281111562000657576200065662000fdd565b5b02179055508260016000600254815260200190815260200160002060010190805190602001906200068a92919062000c17565b507fa4035636e99f06b7651a604c1019fa4e8779fe68ef27eeb74dff2de348f6199b60025460016000600254815260200190815260200160002060000160149054906101000a900460ff166002811115620006ea57620006e962000fdd565b5b83604051620006fc93929190620013df565b60405180910390a1600260008154809291906200071990620014c1565b9190505550505050565b60008060009054906101000a900473ffffffffffffffffffffffffffffffffffffffff16905090565b60016020528060005260406000206000915090508060000160009054906101000a900473ffffffffffffffffffffffffffffffffffffffff16908060000160149054906101000a900460ff1690806001018054620007aa906200153e565b80601f0160208091040260200160405190810160405280929190818152602001828054620007d8906200153e565b8015620008295780601f10620007fd5761010080835404028352916020019162000829565b820191906000526020600020905b8154815290600101906020018083116200080b57829003601f168201915b5050505050905083565b6200083d62000b3d565b73ffffffffffffffffffffffffffffffffffffffff166200085d62000723565b73ffffffffffffffffffffffffffffffffffffffff1614620008b6576040517f08c379a0000000000000000000000000000000000000000000000000000000008152600401620008ad90620011e7565b60405180910390fd5b60016002811115620008cd57620008cc62000fdd565b5b6001600083815260200190815260200160002060000160149054906101000a900460ff16600281111562000906576200090562000fdd565b5b1462000949576040517f08c379a00000000000000000000000000000000000000000000000000000000081526004016200094090620015ea565b60405180910390fd5b60026001600083815260200190815260200160002060000160146101000a81548160ff0219169083600281111562000986576200098562000fdd565b5b02179055507fa4035636e99f06b7651a604c1019fa4e8779fe68ef27eeb74dff2de348f6199b816001600084815260200190815260200160002060000160149054906101000a900460ff166002811115620009e657620009e562000fdd565b5b6001600085815260200190815260200160002060000160009054906101000a900473ffffffffffffffffffffffffffffffffffffffff1660405162000a2e93929190620013df565b60405180910390a150565b62000a4362000b3d565b73ffffffffffffffffffffffffffffffffffffffff1662000a6362000723565b73ffffffffffffffffffffffffffffffffffffffff161462000abc576040517f08c379a000000000000000000000000000000000000000000000000000000000815260040162000ab390620011e7565b60405180910390fd5b600073ffffffffffffffffffffffffffffffffffffffff168173ffffffffffffffffffffffffffffffffffffffff16141562000b2f576040517f08c379a000000000000000000000000000000000000000000000000000000000815260040162000b269062001682565b60405180910390fd5b62000b3a8162000b45565b50565b600033905090565b60008060009054906101000a900473ffffffffffffffffffffffffffffffffffffffff169050816000806101000a81548173ffffffffffffffffffffffffffffffffffffffff021916908373ffffffffffffffffffffffffffffffffffffffff1602179055508173ffffffffffffffffffffffffffffffffffffffff168173ffffffffffffffffffffffffffffffffffffffff167f8be0079c531659141344cd1fd0a4f28419497f9722a3daafe3b4186f6b6457e060405160405180910390a35050565b61077480620016a583390190565b82805462000c25906200153e565b90600052602060002090601f01602090048101928262000c49576000855562000c95565b82601f1062000c6457805160ff191683800117855562000c95565b8280016001018555821562000c95579182015b8281111562000c9457825182559160200191906001019062000c77565b5b50905062000ca4919062000ca8565b5090565b5b8082111562000cc357600081600090555060010162000ca9565b5090565b6000604051905090565b600080fd5b600080fd5b6000819050919050565b62000cf08162000cdb565b811462000cfc57600080fd5b50565b60008135905062000d108162000ce5565b92915050565b60006020828403121562000d2f5762000d2e62000cd1565b5b600062000d3f8482850162000cff565b91505092915050565b600080fd5b600080fd5b6000601f19601f8301169050919050565b7f4e487b7100000000000000000000000000000000000000000000000000000000600052604160045260246000fd5b62000d9d8262000d52565b810181811067ffffffffffffffff8211171562000dbf5762000dbe62000d63565b5b80604052505050565b600062000dd462000cc7565b905062000de2828262000d92565b919050565b600067ffffffffffffffff82111562000e055762000e0462000d63565b5b62000e108262000d52565b9050602081019050919050565b82818337600083830152505050565b600062000e4362000e3d8462000de7565b62000dc8565b90508281526020810184848401111562000e625762000e6162000d4d565b5b62000e6f84828562000e1d565b509392505050565b600082601f83011262000e8f5762000e8e62000d48565b5b813562000ea184826020860162000e2c565b91505092915050565b6000806040838503121562000ec45762000ec362000cd1565b5b600083013567ffffffffffffffff81111562000ee55762000ee462000cd6565b5b62000ef38582860162000e77565b925050602062000f068582860162000cff565b9150509250929050565b600073ffffffffffffffffffffffffffffffffffffffff82169050919050565b600062000f3d8262000f10565b9050919050565b62000f4f8162000f30565b82525050565b600060208201905062000f6c600083018462000f44565b92915050565b6000819050919050565b600062000f9d62000f9762000f918462000f10565b62000f72565b62000f10565b9050919050565b600062000fb18262000f7c565b9050919050565b600062000fc58262000fa4565b9050919050565b62000fd78162000fb8565b82525050565b7f4e487b7100000000000000000000000000000000000000000000000000000000600052602160045260246000fd5b6003811062001020576200101f62000fdd565b5b50565b600081905062001033826200100c565b919050565b6000620010458262001023565b9050919050565b620010578162001038565b82525050565b600081519050919050565b600082825260208201905092915050565b60005b83811015620010995780820151818401526020810190506200107c565b83811115620010a9576000848401525b50505050565b6000620010bc826200105d565b620010c8818562001068565b9350620010da81856020860162001079565b620010e58162000d52565b840191505092915050565b600060608201905062001107600083018662000fcc565b6200111660208301856200104c565b81810360408301526200112a8184620010af565b9050949350505050565b6200113f8162000f30565b81146200114b57600080fd5b50565b6000813590506200115f8162001134565b92915050565b6000602082840312156200117e576200117d62000cd1565b5b60006200118e848285016200114e565b91505092915050565b7f4f776e61626c653a2063616c6c6572206973206e6f7420746865206f776e6572600082015250565b6000620011cf60208362001068565b9150620011dc8262001197565b602082019050919050565b600060208201905081810360008301526200120281620011c0565b9050919050565b7f4974656d732063616e206f6e6c792053656c6655706461746500000000000000600082015250565b60006200124160198362001068565b91506200124e8262001209565b602082019050919050565b60006020820190508181036000830152620012748162001232565b9050919050565b6000815190506200128c8162000ce5565b92915050565b600060208284031215620012ab57620012aa62000cd1565b5b6000620012bb848285016200127b565b91505092915050565b7f4974656d206e6f742066756c6c79207061696420796574000000000000000000600082015250565b6000620012fc60178362001068565b91506200130982620012c4565b602082019050919050565b600060208201905081810360008301526200132f81620012ed565b9050919050565b7f4974656d20697320616c7265616479206265796f6e642074686520437265617460008201527f6520737461746500000000000000000000000000000000000000000000000000602082015250565b60006200139460278362001068565b9150620013a18262001336565b604082019050919050565b60006020820190508181036000830152620013c78162001385565b9050919050565b620013d98162000cdb565b82525050565b6000606082019050620013f66000830186620013ce565b620014056020830185620013ce565b62001414604083018462000f44565b949350505050565b6000620014298262000f7c565b9050919050565b60006200143d826200141c565b9050919050565b6200144f8162001430565b82525050565b60006060820190506200146c600083018662001444565b6200147b6020830185620013ce565b6200148a6040830184620013ce565b949350505050565b7f4e487b7100000000000000000000000000000000000000000000000000000000600052601160045260246000fd5b6000620014ce8262000cdb565b91507fffffffffffffffffffffffffffffffffffffffffffffffffffffffffffffffff82141562001504576200150362001492565b5b600182019050919050565b7f4e487b7100000000000000000000000000000000000000000000000000000000600052602260045260246000fd5b600060028204905060018216806200155757607f821691505b602082108114156200156e576200156d6200150f565b5b50919050565b7f4974656d206973206e6f7420696e2074686520706169642073746174652c206160008201527f6e642063616e6e6f742062652064656c69657665726564000000000000000000602082015250565b6000620015d260378362001068565b9150620015df8262001574565b604082019050919050565b600060208201905081810360008301526200160581620015c3565b9050919050565b7f4f776e61626c653a206e6577206f776e657220697320746865207a65726f206160008201527f6464726573730000000000000000000000000000000000000000000000000000602082015250565b60006200166a60268362001068565b915062001677826200160c565b604082019050919050565b600060208201905081810360008301526200169d816200165b565b905091905056fe608060405234801561001057600080fd5b5060405161077438038061077483398181016040528101906100329190610134565b816000819055508060028190555082600360006101000a81548173ffffffffffffffffffffffffffffffffffffffff021916908373ffffffffffffffffffffffffffffffffffffffff160217905550505050610187565b600080fd5b600073ffffffffffffffffffffffffffffffffffffffff82169050919050565b60006100b98261008e565b9050919050565b60006100cb826100ae565b9050919050565b6100db816100c0565b81146100e657600080fd5b50565b6000815190506100f8816100d2565b92915050565b6000819050919050565b610111816100fe565b811461011c57600080fd5b50565b60008151905061012e81610108565b92915050565b60008060006060848603121561014d5761014c610089565b5b600061015b868287016100e9565b935050602061016c8682870161011f565b925050604061017d8682870161011f565b9150509250925092565b6105de806101966000396000f3fe6080604052600436106100385760003560e01c80632986c0e5146102505780633c8da5881461027b57806383d12eef146102a657610241565b36610241576000543414610081576040517f08c379a000000000000000000000000000000000000000000000000000000000815260040161007890610366565b60405180910390fd5b6000600154146100c6576040517f08c379a00000000000000000000000000000000000000000000000000000000081526004016100bd906103d2565b60405180910390fd5b34600160008282546100d8919061042b565b925050819055506000600360009054906101000a900473ffffffffffffffffffffffffffffffffffffffff1673ffffffffffffffffffffffffffffffffffffffff163460025460405160240161012e9190610490565b6040516020818303038152906040527f800fb83f000000000000000000000000000000000000000000000000000000007bffffffffffffffffffffffffffffffffffffffffffffffffffffffff19166020820180517bffffffffffffffffffffffffffffffffffffffffffffffffffffffff83818316178352505050506040516101b89190610525565b60006040518083038185875af1925050503d80600081146101f5576040519150601f19603f3d011682016040523d82523d6000602084013e6101fa565b606091505b505090508061023e576040517f08c379a000000000000000000000000000000000000000000000000000000000815260040161023590610588565b60405180910390fd5b50005b34801561024d57600080fd5b50005b34801561025c57600080fd5b506102656102d1565b6040516102729190610490565b60405180910390f35b34801561028757600080fd5b506102906102d7565b60405161029d9190610490565b60405180910390f35b3480156102b257600080fd5b506102bb6102dd565b6040516102c89190610490565b60405180910390f35b60025481565b60005481565b60015481565b600082825260208201905092915050565b7f5061727469616c207061796d656e747320617265206e6f74206163636570746560008201527f6420617420746869732074696d65000000000000000000000000000000000000602082015250565b6000610350602e836102e3565b915061035b826102f4565b604082019050919050565b6000602082019050818103600083015261037f81610343565b9050919050565b7f4974656d2068617320616c7265616479206265656e207061697220666f720000600082015250565b60006103bc601e836102e3565b91506103c782610386565b602082019050919050565b600060208201905081810360008301526103eb816103af565b9050919050565b6000819050919050565b7f4e487b7100000000000000000000000000000000000000000000000000000000600052601160045260246000fd5b6000610436826103f2565b9150610441836103f2565b9250827fffffffffffffffffffffffffffffffffffffffffffffffffffffffffffffffff03821115610476576104756103fc565b5b828201905092915050565b61048a816103f2565b82525050565b60006020820190506104a56000830184610481565b92915050565b600081519050919050565b600081905092915050565b60005b838110156104df5780820151818401526020810190506104c4565b838111156104ee576000848401525b50505050565b60006104ff826104ab565b61050981856104b6565b93506105198185602086016104c1565b80840191505092915050565b600061053182846104f4565b915081905092915050565b7f4974656d20776173206e6f742064656c69766572656400000000000000000000600082015250565b60006105726016836102e3565b915061057d8261053c565b602082019050919050565b600060208201905081810360008301526105a181610565565b905091905056fea2646970667358221220c383002eba2a4725e3c1955d46ee6e1a6a10276cd85c71ea33818ca34af534a064736f6c634300080a0033a26469706673582212205d7f66adc9724cbb3d36558c664ae1a5fd95c5b1205be041c21c57d62136ccd564736f6c634300080a0033",
  "immutableReferences": {},
  "source": "pragma solidity ^0.8.0;\r\n\r\nimport \"./Item.sol\";\r\nimport \"@openzeppelin/contracts/access/Ownable.sol\";\r\n\r\ncontract ItemManager is Ownable {\r\n\r\n    enum SupplyChainSteps{Created, Paid, Delivered}\r\n\r\n    struct S_Item {\r\n        Item _item;\r\n        ItemManager.SupplyChainSteps _step;\r\n        string _identifier;\r\n    }\r\n\r\n    mapping(uint => S_Item) public items;\r\n    uint index;\r\n\r\n    event SupplyChainStep(uint _itemIndex, uint _step, address _address);\r\n\r\n    function createItem(string memory _identifier, uint _priceInWei) public onlyOwner {\r\n        Item item = new Item(this, _priceInWei, index);\r\n        items[index]._item = item;\r\n        items[index]._step = SupplyChainSteps.Created;\r\n        items[index]._identifier = _identifier;\r\n        emit SupplyChainStep(index, uint(items[index]._step), address(item));\r\n        index++;\r\n    }\r\n\r\n    function triggerPayment(uint _index) public payable {\r\n        Item item = items[_index]._item;\r\n        require(address(item) == msg.sender, \"Items can only SelfUpdate\");\r\n        require(item.priceInWei() == msg.value, \"Item not fully paid yet\");\r\n        require(items[_index]._step == SupplyChainSteps.Created, \"Item is already beyond the Create state\");\r\n        items[_index]._step = SupplyChainSteps.Paid;\r\n        emit SupplyChainStep(_index, uint(items[index]._step), address(item));\r\n    }\r\n\r\n    function triggerDelivery(uint _index) public onlyOwner {\r\n        require(items[_index]._step == SupplyChainSteps.Paid, \"Item is not in the paid state, and cannot be delievered\");\r\n        items[_index]._step = SupplyChainSteps.Delivered;\r\n        emit SupplyChainStep(_index, uint(items[_index]._step), address(items[_index]._item));\r\n    }\r\n\r\n}",
  "sourcePath": "C:\\Users\\kassh\\projects\\s06-eventTrigger\\contracts\\ItemManager.sol",
  "compiler": {
    "name": "solc",
    "version": "0.8.10+commit.fc410830.Emscripten.clang"
  },
  "schemaVersion": "3.4.3",
  "updatedAt": "2021-11-10T13:48:10.088Z",
  "networkType": "ethereum",
  "devdoc": {
    "kind": "dev",
    "methods": {
      "owner()": {
        "details": "Returns the address of the current owner."
      },
      "renounceOwnership()": {
        "details": "Leaves the contract without owner. It will not be possible to call `onlyOwner` functions anymore. Can only be called by the current owner. NOTE: Renouncing ownership will leave the contract without an owner, thereby removing any functionality that is only available to the owner."
      },
      "transferOwnership(address)": {
        "details": "Transfers ownership of the contract to a new account (`newOwner`). Can only be called by the current owner."
      }
    },
    "version": 1
  },
  "userdoc": {
    "kind": "user",
    "methods": {},
    "version": 1
  }
}